:1000000000308A0018280000223084008313000882
:10001000031917280630F800F701F70B0D28F80B25
:100020000C287B30F700F70B1328800B0A280800F8
:1000300003081F398300A001A10183161F149F1418
:100040001F159F1107309C0083138801FF30831216
:100050008800831606168312061A4628831606168B
:100060008312061A37280130A20004202E28A00887
:10007000031D412808108316081001308312A000C8
:1000800046280814831608108312A00183168616CA
:100090008312861A6328831686168312861A5428BA
:1000A0000130A20004204B28A108031D5E288810FF
:1000B0008316881001308312A100632888148316E8
:0A00C00088108312A10129286300B3
:02400E00323F3F
:00000001FF
;PIC16F877A
;CRC=6808  CREATED="12-Oct-17 10:06"
