:1000000000308A0018280000223084008313000882
:10001000031917280630F800F701F70B0D28F80B25
:100020000C287B30F700F70B1328800B0A280800F8
:1000300003081F398300A001A10183161F149F1418
:100040001F159F1107309C0083138801FF30831216
:100050008800831606168312061A4428831606168D
:100060008312061A37280130A20004202E280130FE
:10007000A000200B442808108316081006168312CF
:10008000061EA00144283928831686168312861A74
:100090005F28831686168312861A52280130A20022
:1000A000042049280130A100210B5F288810831605
:1000B000881086168312861EA1015F2854282928DD
:0200C0006300DB
:02400E00323F3F
:00000001FF
;PIC16F877A
;CRC=1E57  CREATED="12-Oct-17 09:56"
